:04000000803118280B
:100008007E14803120007F08F1000B1F1328210087
:10001800911E13282000911E132881319B217108FD
:100028002000FF007E10090080311A28FA01FB0128
:1000380039308400003085001130823104227E106E
:10004800200081315A2928302000AB002B08B3004A
:1000580020002708AC002608AB00A60A0319A70A47
:100068002B0884002C0885000008AD002D08B60078
:1000780036080319080025303606031948283608BB
:1000880082310A2280312C282000AF0178283308D9
:10009800860087010108B4000030B5000130AB00CC
:1000A8002B08B30734083504031D5E28FD30B4005F
:1000B8008130B50034088400350885001200031922
:1000C8002C283408840035088500000882310A226B
:1000D800803101302000B4070030B53D5E28C030C3
:1000E800AB002B08AF048F282708AC002608AB000C
:1000F800A60A0319A70A2B0884002C088500000803
:10010800B600003A0319F828733A03194B28063A3F
:10011800031973282C28330886008701403FB00054
:10012800413FB1000230AB002B08B307B601B60A55
:10013800053036060319BF283608AB00AC01AB35CD
:10014800AC0D7C302B07840081302C3D8500003FAE
:10015800AD00013FAE002E083102031DB5282D0861
:100168003002031CBF280130AB002B08B60705304E
:100178003606031DA0283608AB002B08B200FF3056
:100188002000AB002B08B207320A03192C280A30CA
:10019800A0000030A1003208AB00AC01AB35AC0DBB
:1001A8007C302B07840081302C3D8500003FF20015
:1001B800013FF3003108F5003008F4008031F920E0
:1001C800803173082000A3007208A20081312D211C
:1001D800803120002008303EAD002D08B6003608DA
:1001E80082310A228031C3280800F701F801720819
:1001F800730403192829F901F90AF31B0D290130A1
:10020800F235F30D890B04290130F6007608F90759
:1002180001290130F735F80D890B0E29730875028D
:10022800031D182972087402031C1F297208F4029E
:100238007308F53B77140130F336F20C890B20294B
:100248000130F902031D0D297808F3007708F20040
:10025800080020002008210403195529A501A50A32
:10026800A11B40290130A035A10D890B3729013088
:10027800A4002408A507342921082302031D4629C0
:1002880020082202031C4C292008A2022108A33BB3
:100298000130A136A00C890B4D290130A502031DA0
:1002A80040292308A1002208A00008008131DD218F
:1002B80081318B170B1713302000A6008230A7005E
:1002C8004908B700B8013708A8003808A9008031E4
:1002D800272081310B302000B8002630B7005D3070
:1002E800890B7429B70B7429B80B742900325F295C
:1002F800013400340A34003464340034E8340334FC
:100308001034273454346534783474342034253424
:1003180073342C34203463346F3475346E3474344D
:100328003A342034253475340D346C3400342300C9
:100338009D1CA0291D121D161908F0007B08393EC6
:1003480086008701700881000130F0007008FB0703
:1003580010307B020318FB010130F0007008200008
:10036800C907080022008C018E01303021008C0062
:1003780027308E000F3023008E0010308C002400B0
:100388008C012100951722009D010800210091127F
:10039800083023009F0090309D0024309E00CF300D
:1003A8009B009C01FB01FA012000C9012100911664
:1003B80008008131B62181318131E92181318231D1
:1003C8000F2281318131CA2108007C302100990037
:1003D800980127009B012200960121001A1B0800A2
:1003E800F129F2002000111EF629720823009A0054
:1003F800080028346E3475346C346C342934003475
:10040800640080010131890B052A0034F300730868
:100418008131F521080016302100970008002534A5
:0404280075340034F3
:020000040001F9
:04000E00E4FFFFFF0D
:00000001FF
