:08000000803102288731FD2F39
:100F08001630210097000800F100710887318D27FD
:100F18000800F0002000111E8E2F700823009A0090
:100F28000800083023009F0090309D0024309E0068
:100F3800CF309B009C0108007C302100990098016B
:100F480027009B012200960121001A1B0800A82FE8
:100F58008731B82787318731A027873187318427A0
:100F6800873187319527080022008C018E013030A7
:100F780021008C0027308E000F3023008E001030A7
:100F88008C0024008C012100951722009D01080087
:100F98008731AC2787310030F2008830F300873181
:100FA800E22787310B30FA002630F9005E30890BD2
:100FB800DB2FF90BDB2FFA0BDB2FCF2F7430F4006C
:100FC8007408F7007308F5007208F400F20A0319B0
:100FD800F30A74088400750885000008F60076088E
:100FE800F8007808031908007808873188278731BE
:100FF800E62F20008731CC2F483465346C346C34AC
:101008006F34203457346F3472346C3464340D3494
:041018000A34003462
:020000040001F9
:04000E00E4FFFFFF0D
:00000001FF
